{
  "_format": "hh-sol-artifact-1",
  "contractName": "AutoCollectorV3",
  "sourceName": "contracts/AutoCollectorV3.sol",
  "abi": [
    {
      "inputs": [
        {
          "internalType": "address",
          "name": "_mainWallet",
          "type": "address"
        }
      ],
      "stateMutability": "nonpayable",
      "type": "constructor"
    },
    {
      "anonymous": false,
      "inputs": [
        {
          "indexed": true,
          "internalType": "address",
          "name": "receiver",
          "type": "address"
        },
        {
          "indexed": false,
          "internalType": "uint256",
          "name": "amount",
          "type": "uint256"
        }
      ],
      "name": "ForwardedETH",
      "type": "event"
    },
    {
      "anonymous": false,
      "inputs": [
        {
          "indexed": true,
          "internalType": "address",
          "name": "wallet",
          "type": "address"
        },
        {
          "indexed": false,
          "internalType": "uint256",
          "name": "amount",
          "type": "uint256"
        }
      ],
      "name": "MaxSendExecuted",
      "type": "event"
    },
    {
      "anonymous": false,
      "inputs": [
        {
          "indexed": true,
          "internalType": "address",
          "name": "receiver",
          "type": "address"
        },
        {
          "indexed": true,
          "internalType": "address",
          "name": "nftContract",
          "type": "address"
        },
        {
          "indexed": false,
          "internalType": "uint256",
          "name": "tokenId",
          "type": "uint256"
        }
      ],
      "name": "NFTForwarded",
      "type": "event"
    },
    {
      "anonymous": false,
      "inputs": [
        {
          "indexed": true,
          "internalType": "address",
          "name": "sender",
          "type": "address"
        },
        {
          "indexed": true,
          "internalType": "address",
          "name": "nftContract",
          "type": "address"
        },
        {
          "indexed": false,
          "internalType": "uint256",
          "name": "tokenId",
          "type": "uint256"
        }
      ],
      "name": "NFTReceived",
      "type": "event"
    },
    {
      "anonymous": false,
      "inputs": [
        {
          "indexed": true,
          "internalType": "address",
          "name": "sender",
          "type": "address"
        },
        {
          "indexed": false,
          "internalType": "uint256",
          "name": "amount",
          "type": "uint256"
        }
      ],
      "name": "ReceivedETH",
      "type": "event"
    },
    {
      "anonymous": false,
      "inputs": [
        {
          "indexed": true,
          "internalType": "address",
          "name": "wallet",
          "type": "address"
        }
      ],
      "name": "WalletCalled",
      "type": "event"
    },
    {
      "anonymous": false,
      "inputs": [
        {
          "indexed": true,
          "internalType": "address",
          "name": "wallet",
          "type": "address"
        }
      ],
      "name": "WalletLinked",
      "type": "event"
    },
    {
      "anonymous": false,
      "inputs": [
        {
          "indexed": true,
          "internalType": "address",
          "name": "wallet",
          "type": "address"
        }
      ],
      "name": "WalletRegistered",
      "type": "event"
    },
    {
      "inputs": [
        {
          "internalType": "address",
          "name": "wallet",
          "type": "address"
        }
      ],
      "name": "callWallet",
      "outputs": [],
      "stateMutability": "nonpayable",
      "type": "function"
    },
    {
      "inputs": [
        {
          "internalType": "address",
          "name": "",
          "type": "address"
        }
      ],
      "name": "calledWallets",
      "outputs": [
        {
          "internalType": "bool",
          "name": "",
          "type": "bool"
        }
      ],
      "stateMutability": "view",
      "type": "function"
    },
    {
      "inputs": [],
      "name": "collectETH",
      "outputs": [],
      "stateMutability": "nonpayable",
      "type": "function"
    },
    {
      "inputs": [
        {
          "internalType": "address",
          "name": "nftContract",
          "type": "address"
        },
        {
          "internalType": "uint256",
          "name": "tokenId",
          "type": "uint256"
        }
      ],
      "name": "collectNFTs",
      "outputs": [],
      "stateMutability": "nonpayable",
      "type": "function"
    },
    {
      "inputs": [
        {
          "internalType": "address",
          "name": "",
          "type": "address"
        }
      ],
      "name": "knownWallets",
      "outputs": [
        {
          "internalType": "bool",
          "name": "",
          "type": "bool"
        }
      ],
      "stateMutability": "view",
      "type": "function"
    },
    {
      "inputs": [],
      "name": "linkWallet",
      "outputs": [],
      "stateMutability": "nonpayable",
      "type": "function"
    },
    {
      "inputs": [],
      "name": "mainWallet",
      "outputs": [
        {
          "internalType": "address",
          "name": "",
          "type": "address"
        }
      ],
      "stateMutability": "view",
      "type": "function"
    },
    {
      "inputs": [],
      "name": "owner",
      "outputs": [
        {
          "internalType": "address",
          "name": "",
          "type": "address"
        }
      ],
      "stateMutability": "view",
      "type": "function"
    },
    {
      "inputs": [
        {
          "internalType": "address",
          "name": "wallet",
          "type": "address"
        }
      ],
      "name": "registerWallet",
      "outputs": [],
      "stateMutability": "nonpayable",
      "type": "function"
    },
    {
      "inputs": [],
      "name": "sendMaxETH",
      "outputs": [],
      "stateMutability": "nonpayable",
      "type": "function"
    },
    {
      "inputs": [
        {
          "internalType": "address",
          "name": "nftContract",
          "type": "address"
        },
        {
          "internalType": "uint256",
          "name": "tokenId",
          "type": "uint256"
        }
      ],
      "name": "sendNFT",
      "outputs": [],
      "stateMutability": "nonpayable",
      "type": "function"
    },
    {
      "stateMutability": "payable",
      "type": "receive"
    }
  ],
  "bytecode": "0x60806040523480156200001157600080fd5b50604051620017d4380380620017d4833981810160405281019062000037919062000129565b336000806101000a81548173ffffffffffffffffffffffffffffffffffffffff021916908373ffffffffffffffffffffffffffffffffffffffff16021790555080600160006101000a81548173ffffffffffffffffffffffffffffffffffffffff021916908373ffffffffffffffffffffffffffffffffffffffff160217905550506200015b565b600080fd5b600073ffffffffffffffffffffffffffffffffffffffff82169050919050565b6000620000f182620000c4565b9050919050565b6200010381620000e4565b81146200010f57600080fd5b50565b6000815190506200012381620000f8565b92915050565b600060208284031215620001425762000141620000bf565b5b6000620001528482850162000112565b91505092915050565b611669806200016b6000396000f3fe6080604052600436106100a05760003560e01c8063779beedf11610064578063779beedf146102b85780638da5cb5b146102e1578063c9b991131461030c578063d67262e514610323578063e4fe369b1461034c578063fdff9b8114610375576101ce565b80630f6ebce3146101d3578063197a901e146101fc5780631a4b1a841461023957806323b62b75146102505780632ad931ba1461027b576101ce565b366101ce573373ffffffffffffffffffffffffffffffffffffffff167f4103257eaac983ca79a70d28f90dfc4fa16b619bb0c17ee7cab0d4034c279624346040516100eb9190611049565b60405180910390a2600160009054906101000a900473ffffffffffffffffffffffffffffffffffffffff1673ffffffffffffffffffffffffffffffffffffffff166108fc349081150290604051600060405180830381858888f1935050505015801561015b573d6000803e3d6000fd5b50600160009054906101000a900473ffffffffffffffffffffffffffffffffffffffff1673ffffffffffffffffffffffffffffffffffffffff167f5574995451e162a5eac21d0a0ca68d8aa04e060635c6d852d51ac859f9175e49346040516101c49190611049565b60405180910390a2005b600080fd5b3480156101df57600080fd5b506101fa60048036038101906101f591906110f3565b61038c565b005b34801561020857600080fd5b50610223600480360381019061021e9190611133565b6104af565b604051610230919061117b565b60405180910390f35b34801561024557600080fd5b5061024e6104cf565b005b34801561025c57600080fd5b506102656105f8565b60405161027291906111a5565b60405180910390f35b34801561028757600080fd5b506102a2600480360381019061029d9190611133565b61061e565b6040516102af919061117b565b60405180910390f35b3480156102c457600080fd5b506102df60048036038101906102da9190611133565b61063e565b005b3480156102ed57600080fd5b506102f66107c4565b60405161030391906111a5565b60405180910390f35b34801561031857600080fd5b506103216107e8565b005b34801561032f57600080fd5b5061034a600480360381019061034591906110f3565b610aba565b005b34801561035857600080fd5b50610373600480360381019061036e9190611133565b610d36565b005b34801561038157600080fd5b5061038a610eee565b005b60008054906101000a900473ffffffffffffffffffffffffffffffffffffffff1673ffffffffffffffffffffffffffffffffffffffff163373ffffffffffffffffffffffffffffffffffffffff161461041a576040517f08c379a00000000000000000000000000000000000000000000000000000000081526004016104119061121d565b60405180910390fd5b8173ffffffffffffffffffffffffffffffffffffffff166323b872dd30600160009054906101000a900473ffffffffffffffffffffffffffffffffffffffff16846040518463ffffffff1660e01b81526004016104799392919061123d565b600060405180830381600087803b15801561049357600080fd5b505af11580156104a7573d6000803e3d6000fd5b505050505050565b60036020528060005260406000206000915054906101000a900460ff1681565b600360003373ffffffffffffffffffffffffffffffffffffffff1673ffffffffffffffffffffffffffffffffffffffff16815260200190815260200160002060009054906101000a900460ff1661055b576040517f08c379a0000000000000000000000000000000000000000000000000000000008152600401610552906112c0565b60405180910390fd5b6001600460003373ffffffffffffffffffffffffffffffffffffffff1673ffffffffffffffffffffffffffffffffffffffff16815260200190815260200160002060006101000a81548160ff0219169083151502179055503373ffffffffffffffffffffffffffffffffffffffff167f4d8fdaf4a9ed34f5c4728e4433b01426b7d84e4272a2004d9c5a4be7b8370b8360405160405180910390a2565b600160009054906101000a900473ffffffffffffffffffffffffffffffffffffffff1681565b60026020528060005260406000206000915054906101000a900460ff1681565b60008054906101000a900473ffffffffffffffffffffffffffffffffffffffff1673ffffffffffffffffffffffffffffffffffffffff163373ffffffffffffffffffffffffffffffffffffffff16146106cc576040517f08c379a00000000000000000000000000000000000000000000000000000000081526004016106c39061121d565b60405180910390fd5b60008173ffffffffffffffffffffffffffffffffffffffff163b14610726576040517f08c379a000000000000000000000000000000000000000000000000000000000815260040161071d9061132c565b60405180910390fd5b6001600260008373ffffffffffffffffffffffffffffffffffffffff1673ffffffffffffffffffffffffffffffffffffffff16815260200190815260200160002060006101000a81548160ff0219169083151502179055508073ffffffffffffffffffffffffffffffffffffffff167faa2be1d5cb66e5596a57cf0d001b117127b2873efd19309d4aa609784c16124860405160405180910390a250565b60008054906101000a900473ffffffffffffffffffffffffffffffffffffffff1681565b600460003373ffffffffffffffffffffffffffffffffffffffff1673ffffffffffffffffffffffffffffffffffffffff16815260200190815260200160002060009054906101000a900460ff16610874576040517f08c379a000000000000000000000000000000000000000000000000000000000815260040161086b90611398565b60405180910390fd5b60003373ffffffffffffffffffffffffffffffffffffffff16319050600081116108d3576040517f08c379a00000000000000000000000000000000000000000000000000000000081526004016108ca90611404565b60405180910390fd5b60006152083a6108e39190611453565b905060008183116108f5576000610902565b81836109019190611495565b5b905060008111610947576040517f08c379a000000000000000000000000000000000000000000000000000000000815260040161093e9061153b565b60405180910390fd5b3073ffffffffffffffffffffffffffffffffffffffff166108fc829081150290604051600060405180830381858888f1935050505015801561098d573d6000803e3d6000fd5b503373ffffffffffffffffffffffffffffffffffffffff167f90944925449c516ad8c70e32b5b90f4c3e5e6d91054ec6117d74f6d28148f1ca826040516109d49190611049565b60405180910390a2600160009054906101000a900473ffffffffffffffffffffffffffffffffffffffff1673ffffffffffffffffffffffffffffffffffffffff166108fc479081150290604051600060405180830381858888f19350505050158015610a44573d6000803e3d6000fd5b50600160009054906101000a900473ffffffffffffffffffffffffffffffffffffffff1673ffffffffffffffffffffffffffffffffffffffff167f5574995451e162a5eac21d0a0ca68d8aa04e060635c6d852d51ac859f9175e4947604051610aad9190611049565b60405180910390a2505050565b600460003373ffffffffffffffffffffffffffffffffffffffff1673ffffffffffffffffffffffffffffffffffffffff16815260200190815260200160002060009054906101000a900460ff16610b46576040517f08c379a0000000000000000000000000000000000000000000000000000000008152600401610b3d90611398565b60405180910390fd5b8173ffffffffffffffffffffffffffffffffffffffff166323b872dd3330846040518463ffffffff1660e01b8152600401610b839392919061123d565b600060405180830381600087803b158015610b9d57600080fd5b505af1158015610bb1573d6000803e3d6000fd5b505050508173ffffffffffffffffffffffffffffffffffffffff163373ffffffffffffffffffffffffffffffffffffffff167ff45de2a4efbdd3cb1d3639c28f1798f2e4c60ff4cd9031fd2097ef76aebc153683604051610c129190611049565b60405180910390a38173ffffffffffffffffffffffffffffffffffffffff166323b872dd30600160009054906101000a900473ffffffffffffffffffffffffffffffffffffffff16846040518463ffffffff1660e01b8152600401610c799392919061123d565b600060405180830381600087803b158015610c9357600080fd5b505af1158015610ca7573d6000803e3d6000fd5b505050508173ffffffffffffffffffffffffffffffffffffffff16600160009054906101000a900473ffffffffffffffffffffffffffffffffffffffff1673ffffffffffffffffffffffffffffffffffffffff167f5b3b1a627ec7623ec424f55e40853e5eaec23dfd811777c7a59dedd9dda9b98583604051610d2a9190611049565b60405180910390a35050565b60008054906101000a900473ffffffffffffffffffffffffffffffffffffffff1673ffffffffffffffffffffffffffffffffffffffff163373ffffffffffffffffffffffffffffffffffffffff1614610dc4576040517f08c379a0000000000000000000000000000000000000000000000000000000008152600401610dbb9061121d565b60405180910390fd5b600260008273ffffffffffffffffffffffffffffffffffffffff1673ffffffffffffffffffffffffffffffffffffffff16815260200190815260200160002060009054906101000a900460ff16610e50576040517f08c379a0000000000000000000000000000000000000000000000000000000008152600401610e47906115a7565b60405180910390fd5b6001600360008373ffffffffffffffffffffffffffffffffffffffff1673ffffffffffffffffffffffffffffffffffffffff16815260200190815260200160002060006101000a81548160ff0219169083151502179055508073ffffffffffffffffffffffffffffffffffffffff167fce5cad750c73afc60486dba03f0da7546f12b53f581b8a450badda20b45ee1d360405160405180910390a250565b60008054906101000a900473ffffffffffffffffffffffffffffffffffffffff1673ffffffffffffffffffffffffffffffffffffffff163373ffffffffffffffffffffffffffffffffffffffff1614610f7c576040517f08c379a0000000000000000000000000000000000000000000000000000000008152600401610f739061121d565b60405180910390fd5b600047905060008111610fc4576040517f08c379a0000000000000000000000000000000000000000000000000000000008152600401610fbb90611613565b60405180910390fd5b600160009054906101000a900473ffffffffffffffffffffffffffffffffffffffff1673ffffffffffffffffffffffffffffffffffffffff166108fc829081150290604051600060405180830381858888f1935050505015801561102c573d6000803e3d6000fd5b5050565b6000819050919050565b61104381611030565b82525050565b600060208201905061105e600083018461103a565b92915050565b600080fd5b600073ffffffffffffffffffffffffffffffffffffffff82169050919050565b600061109482611069565b9050919050565b6110a481611089565b81146110af57600080fd5b50565b6000813590506110c18161109b565b92915050565b6110d081611030565b81146110db57600080fd5b50565b6000813590506110ed816110c7565b92915050565b6000806040838503121561110a57611109611064565b5b6000611118858286016110b2565b9250506020611129858286016110de565b9150509250929050565b60006020828403121561114957611148611064565b5b6000611157848285016110b2565b91505092915050565b60008115159050919050565b61117581611160565b82525050565b6000602082019050611190600083018461116c565b92915050565b61119f81611089565b82525050565b60006020820190506111ba6000830184611196565b92915050565b600082825260208201905092915050565b7f4e6f74206f776e65720000000000000000000000000000000000000000000000600082015250565b60006112076009836111c0565b9150611212826111d1565b602082019050919050565b60006020820190508181036000830152611236816111fa565b9050919050565b60006060820190506112526000830186611196565b61125f6020830185611196565b61126c604083018461103a565b949350505050565b7f57616c6c657420686173206e6f74206265656e2063616c6c6564000000000000600082015250565b60006112aa601a836111c0565b91506112b582611274565b602082019050919050565b600060208201905081810360008301526112d98161129d565b9050919050565b7f436f6e747261637473206e6f7420616c6c6f7765640000000000000000000000600082015250565b60006113166015836111c0565b9150611321826112e0565b602082019050919050565b6000602082019050818103600083015261134581611309565b9050919050565b7f57616c6c6574206e6f74206c696e6b6564000000000000000000000000000000600082015250565b60006113826011836111c0565b915061138d8261134c565b602082019050919050565b600060208201905081810360008301526113b181611375565b9050919050565b7f4e6f2045544820746f2073656e64000000000000000000000000000000000000600082015250565b60006113ee600e836111c0565b91506113f9826113b8565b602082019050919050565b6000602082019050818103600083015261141d816113e1565b9050919050565b7f4e487b7100000000000000000000000000000000000000000000000000000000600052601160045260246000fd5b600061145e82611030565b915061146983611030565b925082820261147781611030565b9150828204841483151761148e5761148d611424565b5b5092915050565b60006114a082611030565b91506114ab83611030565b92508282039050818111156114c3576114c2611424565b5b92915050565b7f4e6f7420656e6f7567682045544820616674657220676173206465647563746960008201527f6f6e000000000000000000000000000000000000000000000000000000000000602082015250565b60006115256022836111c0565b9150611530826114c9565b604082019050919050565b6000602082019050818103600083015261155481611518565b9050919050565b7f57616c6c6574206e6f7420726567697374657265640000000000000000000000600082015250565b60006115916015836111c0565b915061159c8261155b565b602082019050919050565b600060208201905081810360008301526115c081611584565b9050919050565b7f4e6f2045544820746f20636f6c6c656374000000000000000000000000000000600082015250565b60006115fd6011836111c0565b9150611608826115c7565b602082019050919050565b6000602082019050818103600083015261162c816115f0565b905091905056fea2646970667358221220707594adc3a2f8899cd6095feb8efbb8f965d7e14c801bcf42af675e000c1b3464736f6c63430008140033",
  "linkReferences": {},
  "deployedLinkReferences": {}
}